{
  "_format": "hh-sol-artifact-1",
  "contractName": "Router",
  "sourceName": "contracts/Router.sol",
  "abi": [
    {
      "anonymous": false,
      "inputs": [
        {
          "indexed": true,
          "internalType": "address",
          "name": "sender",
          "type": "address"
        },
        {
          "indexed": true,
          "internalType": "address",
          "name": "receiver",
          "type": "address"
        },
        {
          "indexed": false,
          "internalType": "address",
          "name": "tokenContract",
          "type": "address"
        },
        {
          "indexed": false,
          "internalType": "uint256",
          "name": "amount",
          "type": "uint256"
        },
        {
          "indexed": false,
          "internalType": "bytes32",
          "name": "hashlock",
          "type": "bytes32"
        },
        {
          "indexed": false,
          "internalType": "uint256",
          "name": "timelock",
          "type": "uint256"
        }
      ],
      "name": "HTLCERC20New",
      "type": "event"
    },
    {
      "anonymous": false,
      "inputs": [
        {
          "indexed": true,
          "internalType": "bytes32",
          "name": "hashlock",
          "type": "bytes32"
        }
      ],
      "name": "HTLCERC20Refund",
      "type": "event"
    },
    {
      "anonymous": false,
      "inputs": [
        {
          "indexed": true,
          "internalType": "bytes32",
          "name": "hashlock",
          "type": "bytes32"
        }
      ],
      "name": "HTLCERC20Withdraw",
      "type": "event"
    },
    {
      "inputs": [
        {
          "internalType": "bytes32",
          "name": "_hashlock",
          "type": "bytes32"
        }
      ],
      "name": "getContract",
      "outputs": [
        {
          "internalType": "bytes32",
          "name": "hashlock",
          "type": "bytes32"
        },
        {
          "internalType": "address",
          "name": "sender",
          "type": "address"
        },
        {
          "internalType": "address",
          "name": "receiver",
          "type": "address"
        },
        {
          "internalType": "address",
          "name": "tokenContract",
          "type": "address"
        },
        {
          "internalType": "uint256",
          "name": "amount",
          "type": "uint256"
        },
        {
          "internalType": "uint256",
          "name": "timelock",
          "type": "uint256"
        },
        {
          "internalType": "bool",
          "name": "withdrawn",
          "type": "bool"
        },
        {
          "internalType": "bool",
          "name": "refunded",
          "type": "bool"
        },
        {
          "internalType": "bytes32",
          "name": "preimage",
          "type": "bytes32"
        }
      ],
      "stateMutability": "view",
      "type": "function"
    },
    {
      "inputs": [
        {
          "internalType": "address",
          "name": "_receiver",
          "type": "address"
        },
        {
          "internalType": "bytes32",
          "name": "_hashlock",
          "type": "bytes32"
        },
        {
          "internalType": "uint256",
          "name": "_timelock",
          "type": "uint256"
        },
        {
          "internalType": "address",
          "name": "_tokenContract",
          "type": "address"
        },
        {
          "internalType": "uint256",
          "name": "_amount",
          "type": "uint256"
        }
      ],
      "name": "newContract",
      "outputs": [
        {
          "internalType": "bytes32",
          "name": "hashlock",
          "type": "bytes32"
        }
      ],
      "stateMutability": "nonpayable",
      "type": "function"
    },
    {
      "inputs": [
        {
          "internalType": "bytes32",
          "name": "_hashlock",
          "type": "bytes32"
        }
      ],
      "name": "refund",
      "outputs": [
        {
          "internalType": "bool",
          "name": "",
          "type": "bool"
        }
      ],
      "stateMutability": "nonpayable",
      "type": "function"
    },
    {
      "inputs": [
        {
          "internalType": "bytes32",
          "name": "_hashlock",
          "type": "bytes32"
        },
        {
          "internalType": "bytes32",
          "name": "_preimage",
          "type": "bytes32"
        }
      ],
      "name": "withdraw",
      "outputs": [
        {
          "internalType": "bool",
          "name": "",
          "type": "bool"
        }
      ],
      "stateMutability": "nonpayable",
      "type": "function"
    }
  ],
  "bytecode": "0x608060405234801561001057600080fd5b50611975806100206000396000f3fe608060405234801561001057600080fd5b506004361061004c5760003560e01c8063398a7a981461005157806363615149146100815780637249fbb6146100b1578063e16c7d98146100e1575b600080fd5b61006b60048036038101906100669190610eb8565b610119565b6040516100789190610f42565b60405180910390f35b61009b60048036038101906100969190610f5d565b6105b2565b6040516100a89190610fb8565b60405180910390f35b6100cb60048036038101906100c69190610fd3565b6108ff565b6040516100d89190610fb8565b60405180910390f35b6100fb60048036038101906100f69190610fd3565b610c4f565b6040516101109998979695949392919061101e565b60405180910390f35b600082338360008111610161576040517f08c379a000000000000000000000000000000000000000000000000000000000815260040161015890611108565b60405180910390fd5b808373ffffffffffffffffffffffffffffffffffffffff1663dd62ed3e84306040518363ffffffff1660e01b815260040161019d929190611128565b602060405180830381865afa1580156101ba573d6000803e3d6000fd5b505050506040513d601f19601f820116820180604052508101906101de9190611166565b101561021f576040517f08c379a000000000000000000000000000000000000000000000000000000000815260040161021690611205565b60405180910390fd5b86428111610262576040517f08c379a000000000000000000000000000000000000000000000000000000000815260040161025990611297565b60405180910390fd5b61026b89610d7b565b156102ab576040517f08c379a00000000000000000000000000000000000000000000000000000000081526004016102a290611303565b60405180910390fd5b8673ffffffffffffffffffffffffffffffffffffffff166323b872dd3330896040518463ffffffff1660e01b81526004016102e893929190611323565b6020604051808303816000875af1158015610307573d6000803e3d6000fd5b505050506040513d601f19601f8201168201806040525081019061032b9190611386565b61036a576040517f08c379a000000000000000000000000000000000000000000000000000000000815260040161036190611425565b60405180910390fd5b6040518061010001604052803373ffffffffffffffffffffffffffffffffffffffff1681526020018b73ffffffffffffffffffffffffffffffffffffffff1681526020018873ffffffffffffffffffffffffffffffffffffffff1681526020018781526020018981526020016000151581526020016000151581526020016000801b8152506000808b815260200190815260200160002060008201518160000160006101000a81548173ffffffffffffffffffffffffffffffffffffffff021916908373ffffffffffffffffffffffffffffffffffffffff16021790555060208201518160010160006101000a81548173ffffffffffffffffffffffffffffffffffffffff021916908373ffffffffffffffffffffffffffffffffffffffff16021790555060408201518160020160006101000a81548173ffffffffffffffffffffffffffffffffffffffff021916908373ffffffffffffffffffffffffffffffffffffffff160217905550606082015181600301556080820151816004015560a08201518160050160006101000a81548160ff02191690831515021790555060c08201518160050160016101000a81548160ff02191690831515021790555060e082015181600601559050508973ffffffffffffffffffffffffffffffffffffffff163373ffffffffffffffffffffffffffffffffffffffff167fd470958a7e49aebd25ffe012d33ec6e82c24a4b17bed17cee7c4ecfe7015f0fb89898d8d60405161059a9493929190611445565b60405180910390a38894505050505095945050505050565b6000826105be81610d7b565b6105fd576040517f08c379a00000000000000000000000000000000000000000000000000000000081526004016105f4906114d6565b60405180910390fd5b83836002816040516020016106129190611517565b60405160208183030381529060405260405161062e91906115a3565b602060405180830381855afa15801561064b573d6000803e3d6000fd5b5050506040513d601f19601f8201168201806040525081019061066e91906115cf565b82146106af576040517f08c379a00000000000000000000000000000000000000000000000000000000081526004016106a690611648565b60405180910390fd5b853373ffffffffffffffffffffffffffffffffffffffff1660008083815260200190815260200160002060010160009054906101000a900473ffffffffffffffffffffffffffffffffffffffff1673ffffffffffffffffffffffffffffffffffffffff1614610753576040517f08c379a000000000000000000000000000000000000000000000000000000000815260040161074a906116b4565b60405180910390fd5b6000151560008083815260200190815260200160002060050160009054906101000a900460ff161515146107bc576040517f08c379a00000000000000000000000000000000000000000000000000000000081526004016107b390611720565b60405180910390fd5b6000806000898152602001908152602001600020905086816006018190555060018160050160006101000a81548160ff0219169083151502179055508060020160009054906101000a900473ffffffffffffffffffffffffffffffffffffffff1673ffffffffffffffffffffffffffffffffffffffff1663a9059cbb8260010160009054906101000a900473ffffffffffffffffffffffffffffffffffffffff1683600301546040518363ffffffff1660e01b815260040161087f929190611740565b6020604051808303816000875af115801561089e573d6000803e3d6000fd5b505050506040513d601f19601f820116820180604052508101906108c29190611386565b50877f15a71365fee30a355046c80d10aab98a49c3558b2272658d6c551733203e9bbe60405160405180910390a260019550505050505092915050565b60008161090b81610d7b565b61094a576040517f08c379a0000000000000000000000000000000000000000000000000000000008152600401610941906114d6565b60405180910390fd5b823373ffffffffffffffffffffffffffffffffffffffff1660008083815260200190815260200160002060000160009054906101000a900473ffffffffffffffffffffffffffffffffffffffff1673ffffffffffffffffffffffffffffffffffffffff16146109ee576040517f08c379a00000000000000000000000000000000000000000000000000000000081526004016109e5906117b5565b60405180910390fd5b6000151560008083815260200190815260200160002060050160019054906101000a900460ff16151514610a57576040517f08c379a0000000000000000000000000000000000000000000000000000000008152600401610a4e90611821565b60405180910390fd5b6000151560008083815260200190815260200160002060050160009054906101000a900460ff16151514610ac0576040517f08c379a0000000000000000000000000000000000000000000000000000000008152600401610ab79061188d565b60405180910390fd5b42600080838152602001908152602001600020600401541115610b18576040517f08c379a0000000000000000000000000000000000000000000000000000000008152600401610b0f9061191f565b60405180910390fd5b6000806000868152602001908152602001600020905060018160050160016101000a81548160ff0219169083151502179055508060020160009054906101000a900473ffffffffffffffffffffffffffffffffffffffff1673ffffffffffffffffffffffffffffffffffffffff1663a9059cbb8260000160009054906101000a900473ffffffffffffffffffffffffffffffffffffffff1683600301546040518363ffffffff1660e01b8152600401610bd2929190611740565b6020604051808303816000875af1158015610bf1573d6000803e3d6000fd5b505050506040513d601f19601f82011682018060405250810190610c159190611386565b50847ff97bb6718c3bf29e51d27c00a46276abc2cf35c7f1d5a1c71bec2c82421bb83060405160405180910390a260019350505050919050565b6000806000806000806000806000801515610c698b610d7b565b151503610ca15760008060008060008060008060008860001b98508060001b9050985098509850985098509850985098509850610d6e565b60008060008c815260200190815260200160002090508a8160000160009054906101000a900473ffffffffffffffffffffffffffffffffffffffff168260010160009054906101000a900473ffffffffffffffffffffffffffffffffffffffff168360020160009054906101000a900473ffffffffffffffffffffffffffffffffffffffff16846003015485600401548660050160009054906101000a900460ff168760050160019054906101000a900460ff168860060154995099509950995099509950995099509950505b9193959799909294969850565b60008073ffffffffffffffffffffffffffffffffffffffff1660008084815260200190815260200160002060000160009054906101000a900473ffffffffffffffffffffffffffffffffffffffff1673ffffffffffffffffffffffffffffffffffffffff1614159050919050565b600080fd5b600073ffffffffffffffffffffffffffffffffffffffff82169050919050565b6000610e1982610dee565b9050919050565b610e2981610e0e565b8114610e3457600080fd5b50565b600081359050610e4681610e20565b92915050565b6000819050919050565b610e5f81610e4c565b8114610e6a57600080fd5b50565b600081359050610e7c81610e56565b92915050565b6000819050919050565b610e9581610e82565b8114610ea057600080fd5b50565b600081359050610eb281610e8c565b92915050565b600080600080600060a08688031215610ed457610ed3610de9565b5b6000610ee288828901610e37565b9550506020610ef388828901610e6d565b9450506040610f0488828901610ea3565b9350506060610f1588828901610e37565b9250506080610f2688828901610ea3565b9150509295509295909350565b610f3c81610e4c565b82525050565b6000602082019050610f576000830184610f33565b92915050565b60008060408385031215610f7457610f73610de9565b5b6000610f8285828601610e6d565b9250506020610f9385828601610e6d565b9150509250929050565b60008115159050919050565b610fb281610f9d565b82525050565b6000602082019050610fcd6000830184610fa9565b92915050565b600060208284031215610fe957610fe8610de9565b5b6000610ff784828501610e6d565b91505092915050565b61100981610e0e565b82525050565b61101881610e82565b82525050565b600061012082019050611034600083018c610f33565b611041602083018b611000565b61104e604083018a611000565b61105b6060830189611000565b611068608083018861100f565b61107560a083018761100f565b61108260c0830186610fa9565b61108f60e0830185610fa9565b61109d610100830184610f33565b9a9950505050505050505050565b600082825260208201905092915050565b7f746f6b656e20616d6f756e74206d757374206265203e20300000000000000000600082015250565b60006110f26018836110ab565b91506110fd826110bc565b602082019050919050565b60006020820190508181036000830152611121816110e5565b9050919050565b600060408201905061113d6000830185611000565b61114a6020830184611000565b9392505050565b60008151905061116081610e8c565b92915050565b60006020828403121561117c5761117b610de9565b5b600061118a84828501611151565b91505092915050565b7f746f6b656e20616c6c6f77616e6365206d757374206265203e3d20616d6f756e60008201527f7400000000000000000000000000000000000000000000000000000000000000602082015250565b60006111ef6021836110ab565b91506111fa82611193565b604082019050919050565b6000602082019050818103600083015261121e816111e2565b9050919050565b7f74696d656c6f636b2074696d65206d75737420626520696e207468652066757460008201527f7572650000000000000000000000000000000000000000000000000000000000602082015250565b60006112816023836110ab565b915061128c82611225565b604082019050919050565b600060208201905081810360008301526112b081611274565b9050919050565b7f436f6e747261637420616c726561647920657869737473000000000000000000600082015250565b60006112ed6017836110ab565b91506112f8826112b7565b602082019050919050565b6000602082019050818103600083015261131c816112e0565b9050919050565b60006060820190506113386000830186611000565b6113456020830185611000565b611352604083018461100f565b949350505050565b61136381610f9d565b811461136e57600080fd5b50565b6000815190506113808161135a565b92915050565b60006020828403121561139c5761139b610de9565b5b60006113aa84828501611371565b91505092915050565b7f7472616e7366657246726f6d2073656e64657220746f2074686973206661696c60008201527f6564000000000000000000000000000000000000000000000000000000000000602082015250565b600061140f6022836110ab565b915061141a826113b3565b604082019050919050565b6000602082019050818103600083015261143e81611402565b9050919050565b600060808201905061145a6000830187611000565b611467602083018661100f565b6114746040830185610f33565b611481606083018461100f565b95945050505050565b7f636f6e747261637420646f6573206e6f74206578697374000000000000000000600082015250565b60006114c06017836110ab565b91506114cb8261148a565b602082019050919050565b600060208201905081810360008301526114ef816114b3565b9050919050565b6000819050919050565b61151161150c82610e4c565b6114f6565b82525050565b60006115238284611500565b60208201915081905092915050565b600081519050919050565b600081905092915050565b60005b8381101561156657808201518184015260208101905061154b565b60008484015250505050565b600061157d82611532565b611587818561153d565b9350611597818560208601611548565b80840191505092915050565b60006115af8284611572565b915081905092915050565b6000815190506115c981610e56565b92915050565b6000602082840312156115e5576115e4610de9565b5b60006115f3848285016115ba565b91505092915050565b7f686173686c6f636b206861736820646f6573206e6f74206d6174636800000000600082015250565b6000611632601c836110ab565b915061163d826115fc565b602082019050919050565b6000602082019050818103600083015261166181611625565b9050919050565b7f776974686472617761626c653a206e6f74207265636569766572000000000000600082015250565b600061169e601a836110ab565b91506116a982611668565b602082019050919050565b600060208201905081810360008301526116cd81611691565b9050919050565b7f776974686472617761626c653a20616c72656164792077697468647261776e00600082015250565b600061170a601f836110ab565b9150611715826116d4565b602082019050919050565b60006020820190508181036000830152611739816116fd565b9050919050565b60006040820190506117556000830185611000565b611762602083018461100f565b9392505050565b7f726566756e6461626c653a206e6f742073656e64657200000000000000000000600082015250565b600061179f6016836110ab565b91506117aa82611769565b602082019050919050565b600060208201905081810360008301526117ce81611792565b9050919050565b7f726566756e6461626c653a20616c726561647920726566756e64656400000000600082015250565b600061180b601c836110ab565b9150611816826117d5565b602082019050919050565b6000602082019050818103600083015261183a816117fe565b9050919050565b7f726566756e6461626c653a20616c72656164792077697468647261776e000000600082015250565b6000611877601d836110ab565b915061188282611841565b602082019050919050565b600060208201905081810360008301526118a68161186a565b9050919050565b7f726566756e6461626c653a2074696d656c6f636b206e6f74207965742070617360008201527f7365640000000000000000000000000000000000000000000000000000000000602082015250565b60006119096023836110ab565b9150611914826118ad565b604082019050919050565b60006020820190508181036000830152611938816118fc565b905091905056fea2646970667358221220d173b4764e9bf96ec35bb12d43507c6a4ac639ae0d33403d322ceabff446cc9764736f6c63430008180033",
  "linkReferences": {},
  "deployedLinkReferences": {}
}